:100000000C94F5020C942D030C942D030C942D03E9
:100010000C942D030C942D030C942D030C942D03A0
:100020000C942D030C942D030C942D030C94482F49
:100030000C94F22F0C94FD2E0C942D030C942D0394
:100040000C942D030C942D030C942D030C94242F4D
:100050000C942D030C942D030C942D030C942D0360
:100060000C942D030C942D030C942D030C942D0350
:100070000C942D03000000000000000000000000B0
:100080000000000000000000000000000000000070
:1000900000000000000000007E0F00D4FFFFFFC73B
:1000A0000000007800000000000000002A2B28005B
:1000B0000000000000000000000000000000002917
:1000C000000000002C1E3420212224342627252E57
:1000D000362D3738271E1F2021222324252633338F
:1000E000362E37381F0405060708090A0B0C0D0EBB
:1000F0000F101112131415161718191A1B1C1D2F87
:100100003130232D350405060708090A0B0C0D0EA6
:100110000F101112131415161718191A1B1C1D2F66
:100120003130354C0660FF0961A1010962150026D6
:10013000FF009520750881020963150026FF0095D0
:100140002075089102C005010906A101050719E003
:1001500029E71500250195087501810295017508AB
:1001600081010507190029FF150026FF0095067576
:100170000881000508190129059505750191029569
:100180000175039101C009024200020100A0FA09B1
:1001900004000001030101000921110100012240B6
:1001A00000070581030800010904010002030000A3
:1001B000000921110100012222000705820320000D
:1001C00001070503032000011201000200000008DE
:1001D0001133112B0100010203011C037600690099
:1001E00061006C003A0066003600340063003200A3
:1001F0006200330063000000140341006C006E00D5
:1002000069006C0061006D003600300000002203C0
:1002100053006300610074007400650072006500A3
:10022000640044007200690066007400650072009A
:1002300000000403090400000000000000000000AA
:1002400000000000000000000000000000000000AE
:10025000000000000000000000000000000000009E
:10026000000000000000000000000000000000008E
:10027000000000000000000000000000000000007E
:10028000000000000000000000000000000000006E
:10029000000000000000000000000000000000005E
:1002A000000000000000000000000000000000004E
:1002B000000000000000000000000000000000003E
:1002C000000000000000000000000000000000002E
:1002D000000000000000000000000000000000001E
:1002E000000000000000000000000000000000000E
:1002F00000000000000000000000000000000000FE
:1003000000000000000000000000000000000000ED
:1003100000000000000000000000000000000000DD
:1003200000000000000000000000000000000000CD
:1003300000000000000000000000000000000000BD
:1003400000000000000000000000000000000100AC
:1003500001006D041A273027000002000200690422
:100360001A2730270000030001006E041A273027E7
:1003700000000400020053041A273027410605003C
:1003800001006F041A273027000006000200550400
:100390001A2730270000070002006B041A273027B5
:1003A00000000800010070041A2730270000120026
:1003B000020071041A2730270000130002007304A2
:1003C0001A27302700001400010075041A2730276F
:1003D00000001500000000004A066D0D0000FD370A
:1003E0007A585A000004E6D6B446020021011600ED
:1003F0000000742FE5A3E004D501C95D003D8889A4
:10040000C65436C3174FE4DB9DBEBF4A91888E5E4B
:10041000F8B18EA6DF948161F1EBEE1397920C1484
:100420008A2CC5B90C2FA1F06F32A5052138767F33
:10043000D712BA5C46223BA76E36F45C9C58721207
:100440001746778ADEBDFFE7699513A2822D903BA0
:1004500096A1E6D61A56910A8C4FB10F2F434775D5
:10046000431D3D06AFC5BF5F782D656EAC2F8D185F
:10047000069452F6597DE8E871510F2F0180B73F7D
:1004800082A1CF5A404451D3411766D132FED3D115
:100490006A0CFADFBAB71C4DE440DDDE4DA1D56031
:1004A00021E97CE93AA07557CED4E6199F9E092828
:1004B00056E438E2FEBF1ACDCC86636AD9C366F231
:1004C0006EE28E0641CC2D6FD067729E7A32145543
:1004D000D7D09CEFBA3C33822C9AE2C948883C2999
:1004E000F24B4A6020B8136A6D3BA3EEB732335A21
:1004F000D23710ED896775E67104AA2EB0567438AC
:100500005A2AF07B904550735DD570BCDAE2EBFD62
:10051000B0977C5791C3E28AEC11DB4927A4DF90A6
:10052000D58E864AB411C5A17F5D489BF5675938C1
:10053000AFB860A5D16160DB267EC2E31333A0B4FF
:10054000B73E9244836D85B0A566670C64DC434476
:1005500097D407D81005EEF5B68F2FC39409B8F6D7
:10056000B4CBA589B17627D7ECDE72726539788570
:10057000BD5A2794F8B95BB44D07D96DB6B435832D
:10058000E13EBF3BE5A49861A428C54EE755949B86
:10059000756E5FA4F6F93A97E6C6045EF998A17CF9
:1005A0008EA3A23B9C8981CF7AD4EEB81F8682D9D4
:1005B00048B031B5DE426EE38B3AA2A7D9DF818124
:1005C000E27EF1ECEB400000000018F7E098686371
:1005D00081B20001E503D6090000F6F992CEB1C45C
:1005E00067FB020000000004595A11241FBECFEF20
:1005F000D4E0DEBFCDBF04B603FE18C080917B04FB
:1006000090917C04A0917D04B0917E048730904B42
:10061000A740B04B59F410927B0410927C041092C6
:100620007D0410927E04E0E0F8E3099524E0A2E363
:10063000B1E001C01D92AB37B207E1F711E0A0E0D5
:10064000B1E0EEEBF2E602C005900D92A233B107E5
:10065000D9F70E94FA270C9410310C9400009C01E9
:100660009A9581159F4118F5F901EE27F270832FB5
:100670008170B90166277470A9014427587034FF4E
:100680000CC08295807FEF2B09F08062672B09F008
:100690008064452B69F080680895EF2B09F0826033
:1006A000672B09F08460452B19F08860089580E07D
:1006B0000895CF93DF93EB010E942F03FE0109956C
:1006C000DF91CF910895282F92959F70963091F0E9
:1006D00060F4925F9F70923030F481E0203F79F0B7
:1006E00030F4283E30F080E008959A5FF3CF243F45
:1006F000D1F7089581E0283EE0F3213FF9CF089536
:10070000382F262F9530A8F58E3098F5892F90E058
:100710006EE070E00E943B30830F911D382F3770E0
:1007200041E001C0440F3A95EAF733E0969587958A
:100730003A95E1F763E070E00E943B30FC01E7513D
:10074000FD4F80E090E0622F70E05191DF01119742
:100750009B01082E02C0369527950A94E2F7217076
:1007600021952527242325272C9301968330910555
:1007700061F70895282F953088F58E3078F5892F08
:1007800090E06EE070E00E943B30820F911DA82F38
:10079000A77023E0969587952A95E1F763E070E0CE
:1007A0000E943B30FC01E751FD4F40E050E080E00B
:1007B000219130E00A2E02C0369527950A94E2F77F
:1007C00021703327042E01C0220F0A94EAF7822BEE
:1007D0004F5F5F4F4330510559F7089580E008950A
:1007E0008091A00290919F02981301C008958F5F9D
:1007F0008770FACFA6E3B1E0EFEF90E02D9182177A
:1008000051F0EF3F19F4211101C0E92F9F5F96309D
:10081000A9F7EF3F09F408950E2E000CFF0BEC5CD6
:10082000FE4F82830895E6E3F1E09191891303C0BE
:10083000DF0111971C9291E0EC33F907B1F70895AD
:100840009091A403982B9093A4030895982F9095CA
:100850008091A40389238093A40308958091A30326
:10086000882331F01092A30310929E0210929D02F1
:1008700008959091770492FF06C0282F28712830A0
:10088000F9F4877F846093FF06C0282F28712831F0
:10089000F1F4877E84612091780420FF06C0382F10
:1008A00038713830D9F4877F816021FF06C0282F46
:1008B00028712831D1F4877E816194FD877E089567
:1008C000282F24712430F9F68B7F8860DCCF282F05
:1008D0002471243101F78B7E8861DDCF382F31718F
:1008E000313019F78E7F8860E0CF282F21712131B8
:1008F00021F78E7E8861E1CFCF93DF93EC01803EBC
:10090000910509F48CC078F58133910509F4D4C0C0
:10091000D0F48932910509F4C4C08A32910509F4F2
:10092000D2C08130910509F48DC001978F3F9F415E
:1009300008F081C0C53AD10508F0CCC0C430D1055B
:1009400008F479C07FC08933910509F45CC082380E
:10095000910509F458C0C59709F49EC0CF3FD10551
:1009600049F340F36FC0843E910509F47AC0C8F49E
:10097000823E910509F462C0833E910509F466C088
:10098000C11580E5D80708F0E5C0C11520E4D207FD
:1009900008F0DDC0CE0101978F3F9F4108F04BC0AA
:1009A000DDCF863E910509F467C0873E910509F4C5
:1009B00068C0811544E5940708F093C0811553E59C
:1009C000950708F0E4C081159145D0F2C11582E584
:1009D000D80708F4D7C08C2F8695869590E0A5E0BF
:1009E000880F991FAA95E1F7C370DD2721E030E059
:1009F000A90102C0440F551FCA95E2F7EA01C82BAE
:100A0000D92BDC681FC08091770483708111F0C0FE
:100A10008091780483FF16C0C9E2D0E013C08091B2
:100A2000770480FD46C09091780490FF0BC0C3EE20
:100A3000D0E084FF07C0C0E0D0E004C0809177041C
:100A400082FDF5CFCE01DF91CF910895809177049B
:100A500082FDCBC09091780490FDCAC084FFF2CF94
:100A6000EACF8091780481FFEDCF80917704C7EEC3
:100A7000D0E084FDE0CFE6CF8091770483FDF7CF0F
:100A8000E1CF8091770483FDB6C09091780491FF07
:100A9000E5CFC4EED0E0D6CF8091770485FFD2CFEA
:100AA000BBCF8091770485FDA9C08091780483FF36
:100AB000C9CFC9E3D0E0C6CF8091770486FFC2CF0B
:100AC000CAE2D0E0BFCF8091770486FFBBCFC1E3FD
:100AD000D0E0B8CFCE01805E9109089708F0ABCF87
:100AE000B1CF811559E59507E0F4811568E59607C2
:100AF00008F069C0C11585E5D80708F45FC0CE01CC
:100B000095558F3F910511F008F095CF8C2F0E94DD
:100B10003904C82FD0E0DC2FCC27CC27DF71D0627E
:100B200091CF81152AE5920708F452C0905681159D
:100B3000904208F080CF8D2F8F710E94390490E091
:100B4000982F882788279F718C2BEC01E8CFDF70C6
:100B5000D06A78CF8C2F86958695837090E0F5E0EB
:100B6000880F991FFA95E1F7C37021E030E0A901E1
:100B700002C0440F551FCA95E2F7EA01C82BD92BD2
:100B8000DD6860CFDC2FCC27C16FD06A5BCF869544
:100B9000869590E075E0880F991F7A95E1F7C3700C
:100BA000DD2721E030E0A90102C0440F551FCA959E
:100BB000E2F7EA01C82BD92BDA6844CFDC2FCC2727
:100BC000C46FD06A3FCFD82FCC27C06FD06A3ACF3E
:100BD0008F700E94390434E0D695C7953A95E1F7B5
:100BE000CF709C2FEC01D0692DCFC2EED0E02ACF80
:100BF000C0EED0E027CFC6EED0E024CFC5E3D0E0F2
:100C000021CF80E00895F894E82FE295EF70F0E0AE
:100C100041A18F7021E030E0B90102C0660F771F5B
:100C20008A95E2F7CB01962F9095942391A392A1F8
:100C3000892B82A37894089581152CE5920741F4BD
:100C40002091900230919102232B11F480E090E0EA
:100C50000895E5E2F3E080E090E06AE276E241E5C3
:100C600056E226EC36E277836683518740873387E6
:100C700022879587848701963E968830910599F75B
:100C80000895809153049091540490930E018093A1
:100C90000D010895A0E0B0E0E0E5F6E00C945F30CF
:100CA000FB018FEF9FEF4430510508F467C040917E
:100CB000770441FB882780F990E0880F991F42FB59
:100CC000AA24A0F8B12CAA0CBB1CAA0CBB1C8A2914
:100CD0009B2940FB882480F8912C8829992943FB83
:100CE000CC24C0F8D12C53E0CC0CDD1C5A95E1F794
:100CF0008C299D2944FBEE24E0F8F12C64E0EE0CF5
:100D0000FF1C6A95E1F78E299F2945FB002700F912
:100D100010E075E0000F111F7A95E1F7802B912B01
:100D200046FB222720F9C22F20E0D22FA6E0CC0FCD
:100D3000DD1FAA95E1F78C2B9D2B47FB442740F93B
:100D400050E05695542F442757954795842B952B63
:100D500020917804322F3170932B26952170B22F79
:100D6000BB0FA0E08A2B9B2B092E000CAA0BBB0B00
:100D700080839183A283B38380E090E0CDB7DEB718
:100D8000ECE00C947B30AC0123E0969587952A9596
:100D9000E1F78E719927FC01EC5AFE4F0190F0812A
:100DA000E02D4F70552721E030E002C0220F331FA5
:100DB0004A95E2F7662341F0E22BF32B8C5A9E4FC3
:100DC000DC01ED93FC93089520953095E223F32305
:100DD000F5CF1092B5031092B403EBE1F4E08581F6
:100DE000811102C014821682379684E0E335F80739
:100DF000B1F70895A091B7035091B6034A2F541349
:100E000001C00895242F30E0F901EE0FFF1FE455D3
:100E1000FC4F608171816817790791F467E070E099
:100E20000E943B30FC01E55EFB4F81E084834A1366
:100E3000E8CF2F5F3F4F237033272093B7030895E8
:100E40002F5F3F4F422F4370DACFFC01848186230E
:100E500081110AC082818823B9F06823908593FFAD
:100E600005C081E061110FC080E00895282F229510
:100E70002F708F70282B962F92959F706F70962BE6
:100E800081E02913F1CF089581E0FDCFE0910603C1
:100E9000F0910703309729F00190F081E02D09953A
:100EA000089580E008952FB7F8948091750290918D
:100EB0007602A0917702B09178022FBF08958091B9
:100EC000550490915604892B91F00E94530720916C
:100ED0009D0230919E02AC01421B530B9A0181E0AE
:100EE00040915504509156042417350708F480E0CA
:100EF00081700895CF93C82F8091780482FF0CC031
:100F00008091A3038C1741F00E94530790939E0297
:100F100080939D02C093A303CF910895A4E0B0E015
:100F2000E4E9F7E00C9469308FB7F89420917502EA
:100F300030917602409177025091780229833A836A
:100F40004B835C838FBF69817A818B819C812496DE
:100F5000E2E00C9485300F931F93CF93DF93D82F4B
:100F6000C92F40911B0350911C0360911D03709188
:100F70001E032FB7F8948091750290917602A0918C
:100F80007702B09178022FBF841B950BA60BB70B8D
:100F9000843F9140A105B10528F560911B03709134
:100FA0001C0380911D0390911E0304EF11E020E0CB
:100FB00030E060937D0270937E0280937F02909375
:100FC00080020093790210937A0220937B0230937F
:100FD0007C02D0931903C0931A03DF91CF911F9124
:100FE0000F9108950E948E0702E310E020E030E0A8
:100FF000E0CF9C014FB7F8948091750290917602F2
:10100000A0917702B09178024FBF821B930B089595
:101010008091520108950895089508950895FC015E
:101020009B0180914801909149018617970740F0F4
:10103000672B29F48091E8008E778093E800C9013E
:1010400040E0009741F4411106C08091E80082FF22
:101050002EC080E00895209194022223A1F1253032
:10106000A1F12091E80023FD2CC02091E80022FD91
:10107000ECCF2091E80020FFE4CF2091F20030E097
:10108000009719F02830310558F041E0283031053B
:1010900009F040E02091E8002E772093E800D1CFBE
:1010A00041914093F10001972F5F3F4FE9CF80912D
:1010B0009402882341F0853041F08091E80083FF5D
:1010C000C4CF81E0089582E0089583E0089580917F
:1010D000420187FF13C08091E80082FF06C0809123
:1010E000E8008B778093E80004C08091940281111E
:1010F000F2CF0895809194028823D9F38091E8007B
:1011000080FFF8CF8091E8008E77ECCF2091E4004B
:101110003091E50095E6A9018091EC00817088236B
:1011200031F08091E80080FF06C080E008952091B2
:10113000E80022FD1BC080919402882391F0853045
:1011400091F08091EB0085FD10C02091E40030917A
:10115000E5004217530701F391509111DCCF84E071
:10116000089582E0089583E0089581E00895EF9264
:10117000FF920F931F93CF938C017B010E948608EF
:10118000C82F81110EC08091E80085FD11C08091AB
:10119000E8008E778093E8000E948608882399F300
:1011A000C82F8C2FCF911F910F91FF90EF90089532
:1011B000F80180818093F100F1E0EF1AF108E11469
:1011C000F10479F30F5F1F4FDECFCF93209194028C
:1011D0002430F1F42091E900C091EC00C795CC27B0
:1011E000C7952F70C22B22E02093E9002091E800E0
:1011F00020FF0BC040E050E060E270E00E94B708C2
:101200008091E8008E778093E800CF70C093E9006A
:10121000CF910895982FE42FE2709093E9008913FD
:1012200008C0762F242F50E0E11111C091E0980FF3
:10123000F4CF7091EC002091ED005091F00021FD71
:1012400006C09F5F953049F78093E900089530917B
:10125000EB003E7F3093EB003091ED003D7F30930B
:10126000ED003091EB0031603093EB007093EC00B7
:101270002093ED005093F0002091EE0027FDE1CF88
:1012800008959C012115310509F408958FE99FE027
:101290000197F1F700C0000021503109F3CF81E040
:1012A0008093E00080E28093D8001092C9008FE123
:1012B0009EE40197F1F700C0000087E090EBDC01AD
:1012C00080937B0490937C04A0937D04B0937E0470
:1012D00088E19CE00FB6F894A895809360000FBE5B
:1012E00090936000FFCFCF93DF93D82FC92F81E079
:1012F0008093E9008FEF9091E80095FD07C095ED90
:101300009A95F1F7000081508111F5CF8091E800A6
:1013100085FD03C0DF91CF91089540E050E068E083
:1013200070E08D2F9C2F0E94B7088091E8008E7787
:101330008093E80088E0ED2FFC2FAAE4B1E0019053
:101340000D928A95E1F7E6CFCF93682FC92F84E0FD
:1013500090E00E94D4306C2F82E290E00E94D43062
:10136000CF910895882381F060E983E290E00E94A4
:10137000D4306FED84E290E00E94D43063EB85E2DC
:1013800090E00E94D43008956FEF83E290E00E94D5
:10139000D4306FEF84E290E00E94D4306FEFEFCF53
:1013A0001F93CF93DF93E82F122F843010F5653011
:1013B00000F54E30F0F4862F90E06CE170E00E9472
:1013C0003B3050E0440F551FEC01C40FD51F8E2F4A
:1013D00090E06CE870E00E943B30C80FD91F632F8B
:1013E000CE0187960E94D430612FCE0188960E944C
:1013F000D430DF91CF911F910895CF93DF93CBE647
:10140000D3E060E0CE010E94D4302196C11584E083
:10141000D807B9F7DF91CF910895CF9384E090E09A
:101420000E94C630C82F82E290E00E94C630982FFA
:101430008C2FCF91089583E290E00E94C6308039CE
:1014400089F484E290E00E94C6308F3D59F485E231
:1014500090E00E94C63091E0833B09F090E0892F34
:101460008170089580E0FCCF0F931F93CF93DF939B
:10147000282F843060F5653050F54E3040F5862FCA
:1014800090E06CE170E00E943B3050E0440F551F4B
:101490008C01040F151F822F90E06CE870E00E9411
:1014A0003B30080F191FC80187960E94C630C82F0D
:1014B000D0E0DC2FCC27C80188960E94C6309E0160
:1014C000282BC901DF91CF911F910F91089580E0E2
:1014D00090E0F8CF462F672F20919202309193022F
:1014E000232B91F4703F39F4403F71F480915702FF
:1014F000909158020895843038F4753028F44E30B5
:1015000018F40E94340A089580E090E00895A0E065
:10151000B0E0EDE8FAE00C9464307C010091A703A0
:101520008091A603082BC7E0D0E010E0C8010C2E84
:1015300002C0959587950A94E2F780FD09C021972E
:10154000A8F7D12C8D2DCDB7DEB7E7E00C94803015
:10155000DC2EB7018C2F0E946A0A0E947C0401973E
:1015600071F3F0CFCF93DF93D82FC92F0E94870A52
:101570006D2F7C2F0E946A0A0E947C04DF91CF911C
:101580000895FC0183819481892B99F08181908158
:1015900089238F3F71F086819781009729F00E94FF
:1015A0007C040E9463030895808191810E94B20AA5
:1015B000F8CF80E008951F93CF93DF93182FD92F92
:1015C000662399F0442389F00E94870AC82F682F68
:1015D000812F9D2F0E948003612F7D2F8C2F0E94D1
:1015E0006A0ADF91CF911F9108950E94BA03C82F14
:1015F000F3CFFC01462F86819781009729F4628101
:10160000808191810E94DB0A08950F931F93CF93ED
:10161000DF9303E514E0C7E5D2E0CE010E94C630B7
:10162000F80161918F01861719F0CE010E94D43024
:101630002196CB37F2E0DF0781F7DF91CF911F9141
:101640000F9108950F931F93CF93DF9303E514E059
:10165000C7E5D2E0CE010E94C630F80181938F0128
:101660002196CB37F2E0DF07A9F7C8E5D3E0FE010A
:1016700085919491009711F0FC0109952C96F3E067
:10168000C83EDF07A1F7DF91CF911F910F91089519
:101690008091A4039091A803892B809334018091B9
:1016A000A303882309F18091550490915604892B56
:1016B00029F00E945F0781110E942E04809134015D
:1016C0009091A303892B8093340120E086E391E07D
:1016D000FC013081019631112F5F31E08C3393078B
:1016E000B9F721110E942E048091150380959091E5
:1016F0003401892390911403892B8093340148E0AD
:1017000050E065E972E084E391E00E949930892B12
:10171000A9F088E0E4E3F1E0A5E9B2E001900D92E0
:101720008A95E1F7E0910603F0910703309731F0D5
:101730000280F381E02D84E391E0099508958823E8
:1017400021F00E9420040E94480B0895882339F05C
:101750009091A803892B8093A8030E94480B0895B9
:10176000882321F00E9426040E94480B08958823B4
:1017700041F080959091A80389238093A8030E944B
:10178000480B0895CF93C82F882391F08CEF8C0FCE
:10179000813A80F4E6E3F1E08191C817C1F081E07D
:1017A000EC33F807C9F78C2F0E94FA030E94480B0C
:1017B000CF91089580E28C0F8830D0F7C77081E018
:1017C00001C0880FCA95EAF70E942004EFCF8C2F42
:1017D0000E9413040E94480BE6CFCF93DF93EC01E5
:1017E000805E9109089720F066EA7BE0209711F46B
:1017F0006FE97BE0CE010E9459038C2F0E94C20B3F
:10180000DF91CF910895662329F02091A8032260EB
:101810002093A8039C013056211540E2340720F0A4
:10182000305E2115304108F499270E94ED0B089590
:10183000882389F19CEF980F913A28F40E941304B1
:101840000E94480B089590E2980F983050F48770EA
:1018500091E001C0990F8A95EAF7892F0E9426042A
:10186000EFCF9BE5980F9330B8F4809104039091EB
:101870000503892B81F01092050310920403E09177
:101880000603F0910703309731F00680F781E02DD1
:1018900080E090E009950895885A8731E0F78091BB
:1018A000080390910903892BB1F310920903109258
:1018B0000803E0910603F0910703309761F3008479
:1018C000F185E02DE5CFCF93DF93EC010E94180C5A
:1018D000CE01805E9109089720F067EB7BE02097AE
:1018E00011F460EB7BE0CE010E945903DF91CF91B0
:1018F00008950F931F93CF93C82F009173041091F5
:101900007404893321F000917104109172048C2FBA
:101910000E94C20B0115110539F48C2F0E94180C7E
:10192000CF911F910F9108958FE99FE00197F1F7F3
:1019300000C0000001501109EDCFA0E0B0E0E3EAE3
:10194000FCE00C946430EC019881992309F49CC06C
:101950009130E1F599818A81913021F422960E949B
:10196000790C05C0923029F422960E94C20B219670
:10197000EBCF933021F422960E94180CF8CF9430CC
:1019800011F02196F4CF229620E030E0DE0111968E
:10199000482F4053550BFA014A30510560F021158C
:1019A000310529F38FE99FE00197F1F700C00000AE
:1019B00021503109F4CFC9016AE070E00E943B3048
:1019C0009F01280F391F8981ED01E0CFE92FF0E059
:1019D000EC55FF4FD490292F26952695269530E07B
:1019E000F901EC56FF4F84919770F901EC57FF4FC6
:1019F000E490F12C092E02C0F594E7940A94E2F7E2
:101A000041E0E422FF24F901EC58FF4F049110E07B
:101A1000092E02C0159507950A94E2F70170112767
:101A2000E82FF0E002C0F595E7959A95E2F7E0FD22
:101A30000CC0E114F104A1F48D2D0E94790C011564
:101A4000110509F494CF8CE28ACF81EE0E94C20B7B
:101A5000E114F10479F48D2D0E94790C81EE07C018
:101A600086EE0E94C20B8D2D0E94790C86EE0E949C
:101A7000180CE5CF86EE0E94C20B8D2D0E94790CCA
:101A800086EE0E94180CEACFCDB7DEB7E7E00C94E3
:101A900080301092A403E6E3F1E086E0DF011D92BE
:101AA0008A95E9F71092A8030E94480B08950E94B6
:101AB000490D2FEF84E39CE0215080409040E1F7F6
:101AC00000C0000088E19CE00FB6F894A8958093D0
:101AD00060000FBE90936000FFCFCF92DF92EF9235
:101AE000FF92FB018FEF9FEF4430510508F47FC058
:101AF000C080D180E280F3800E94490DD701C601E9
:101B0000B695A795979587958170282F220FD701B5
:101B1000C60181709927AA27BB27822BB701A6018E
:101B200032E076956795579547953A95D1F741708C
:101B3000440F440F842BB701A601E3E07695679527
:101B400057954795EA95D1F74170440F440F440FDC
:101B5000842BB701A601F4E07695679557954795D4
:101B6000FA95D1F741704295407F842BB701A601C9
:101B7000A5E07695679557954795AA95D1F7417059
:101B80004295440F407E842BB701A601B6E07695BE
:101B9000679557954795BA95D1F741704295440F8F
:101BA000440F407C842BB701A60197E0769567959A
:101BB000579547959A95D1F7479544274795842B94
:101BC00080937704D1FA882780F9880F9D2D917032
:101BD000892B909178049C7F892B80937804809145
:101BE0007704909178040E94A40980E090E0FF902F
:101BF000EF90DF90CF900895E3E5F4E0128E138E1E
:101C00008FEA90E09183808385E0848F28E833E138
:101C10003383228322E330E0378B268B28EC30E0BD
:101C2000318F208F158E178E168E20E530E031A370
:101C300020A382A30E94050B0E94490D10927804F4
:101C40001092770480E084608093780480E094E0D0
:101C50000E94A4090E94220B0895AAE2B0E0E3E3E7
:101C6000FEE00C94683082E491E0FC010196209142
:101C7000F100208321E08A349207B9F78091430173
:101C8000893009F456C0C8F4823009F4B0C08330FA
:101C900009F47FC0813071F18091E80083FFE4C0D6
:101CA00080914201909143019A3008F0DDC0E92F04
:101CB000F0E0EE5EFE4C0C944C308A3009F486C0A5
:101CC0008B3051F780914201813231F7809146018A
:101CD00090914701892B01F78091E800877F8093DD
:101CE000E8000E94670880914401809300010E94EF
:101CF000490DD2CF80914201813A71F68091E8007E
:101D0000877F8093E8008091460190914701892B5D
:101D100061F060E080E090E070E00E940F08809148
:101D2000E8008B778093E800B7CF68E08AE491E021
:101D3000F3CF80914201813209F0AECF809146010C
:101D400090914701892B09F0A7CF8091E800877F08
:101D50008093E8008091E80082FF16C08091F20035
:101D6000823031F48091F100813011F0863021F41D
:101D70008091F100809352018091E8008B778093ED
:101D8000E8000E94670888CF809194028111E2CF19
:101D900083CF80914201813A09F07ECF8091460144
:101DA00090914701892B09F077CF8091E800877FD8
:101DB0008093E8008091E80080FFFCCF80910001D3
:101DC0008093F1008091E8008E77D9CF8091420115
:101DD000813209F061CF8091E800877F8093E8002D
:101DE0000E946708809145018093410155CF809101
:101DF0004201813A09F050CF8091E800877F8093BB
:101E0000E8008091E80080FFFCCF80914101D8CFAD
:101E1000803889F0823841F5809146018F70853095
:101E200018F58093E9008091EB0085FB882780F905
:101E30001092E90006C080915902909167029111B9
:101E400082609091E800977F9093E8008093F10082
:101E50001092F1008091E8008E7723C0811116C0A6
:101E600080914401813011F18091E80083FF0AC024
:101E70008091E800877F8093E8008091EB0080628A
:101E80008093EB00AA96E3E00C948430823061F7F3
:101E900080914401882389F01092E9008091E80044
:101EA000877F8093E8000E946708DECF81E093304F
:101EB00009F080E080936702EFCF809146018F7038
:101EC0002FEF280F243080F68093E9002091EB005B
:101ED00020FFE2CF933031F48091EB008062809359
:101EE000EB00DACF9091EB0090619093EB0021E052
:101EF00030E0A90102C0440F551F8A95E2F74093D4
:101F0000EA001092EA008091EB008860E8CF81112E
:101F1000ABCF109144011F778091E3008078812B33
:101F20008093E3008091E800877F8093E8000E941F
:101F300067088091E80080FFFCCF8091E300806813
:101F40008093E30083E0111101C082E0809394024A
:101F50008BCF8058823008F087CF40914401509158
:101F600045014C3D83E0580799F583E08A838AE276
:101F700089834FB7F894DE01139620E03EE051E2EA
:101F8000E32FF0E050935700849120FF03C0829527
:101F90008F703F5F8F708A30C8F0895C90E08D93BE
:101FA0009D932F5F243161F74FBF8091E800877FB9
:101FB0008093E8006AE270E0CE0101960E940F086B
:101FC0008091E8008B778093E8004ECF805DE6CF6C
:101FD0002091460130914701852F99278330910543
:101FE00001F160F48130910509F47CC0029709F099
:101FF0003BCF82E490E0E6E8F1E028C08132910531
:1020000009F464C08232910509F02ECF2115310503
:1020100009F472C02130310509F026CFE4E2F1E085
:1020200015C0CA019927423009F448C08330910590
:1020300090F5892B09F03AC0E2E3F2E0E4918E2FAB
:1020400090E0E2E3F2E0009709F40ECF2091E8007F
:10205000277F2093E80020914801309149018217A1
:10206000930708F49C0140E02115310509F049C0AF
:10207000411147C08091E80082FDA2CF8091940277
:10208000882309F49DCF853009F49ACF8091E80028
:1020900083FFF0CF95CF039709F0E6CEEAEDF1E0AC
:1020A000E4918E2F90E0EAEDF1E0CDCFEEE0F2E0AA
:1020B000E4918E2F90E0EEE0F2E0C5CFE8EFF1E0A2
:1020C000E4918E2F90E0E8EFF1E0BDCF21153105CE
:1020D00071F02130310509F0C7CE89E090E0E1EBE5
:1020E000F1E0B4CF82E190E0E8ECF1E0AFCF89E03D
:1020F00090E0E8E9F1E0AACF80E490E0E6E4F1E0E6
:10210000A5CF80919402882309F45ACF853009F431
:1021100057CF8091E80083FD53CF8091E80082FD86
:10212000A9CF8091E80080FF9FCF8091F20090E0DE
:102130002115310519F08830910550F041E00897DC
:1021400009F040E08091E8008E778093E8008CCF22
:1021500044914093F1003196215031090196E8CF26
:10216000803809F081CE8091E800877F8093E80075
:1021700080915A028093F1006DCE811175CE10913D
:102180004401123008F070CE8091E800877F809380
:10219000E80010935A020E9467081123A9F084E016
:1021A0008093940242E061EC81E00E940A0942E2DD
:1021B00061EC82E00E940A0942E260EC83E00E9446
:1021C0000A098091940250CE8091E30087FDE7CF09
:1021D00081E0E6CF8093A6031092A8030E94480BEB
:1021E00008958093A7031092A8030E94480B0895B6
:1021F00021E030E001C0220F8A95EAF78091A70321
:10220000822B0E94F1100895962F2091780422FFCE
:1022100010C0682F660F660F660F692B6093A903C5
:102220000E94F8100E9453079093AB038093AA0377
:1022300008950E94F810089521E030E0A90102C03D
:10224000440F551F8A95E2F7CA0180959091A70324
:1022500089230E94F11008952091A903809582237B
:102260008093A903982F9770911117C030E0482FE1
:10227000082E000C550B2417350779F0909178043F
:1022800092FF0BC08595859585950E941C11109233
:10229000A9031092AB031092AA03089590917804B9
:1022A00092FB222720F9281769F080FB92F990937E
:1022B000780480917704909178040E94A40982E0C8
:1022C0000E942C1108958091A703982F9670963044
:1022D00021F488600E94F1100895877FFBCF8091E0
:1022E0001001877F809310019091A8039D7F9093A8
:1022F000A80384FF06C08F7E8093100182E00E94B5
:1023000020048091100185FF06C08F7D809310010D
:1023100080E20E9420040E94480B0895CF92DF9231
:10232000FF920F931F93CF93DF93EC018B01F42E59
:102330008091100182FF6BC0C0909703D0909803EA
:10234000CC16DD0619F0209709F061C080911001CC
:102350008B7F80931001C1E081FD10C080919503B7
:10236000909196039801281B390BC1E080910D01D3
:1023700090910E012817390708F4C0E0C1708091D0
:102380001001C0FB81F9809310016C2FC6010E94DF
:10239000C3068091A40381FF08C080911001806171
:1023A0008093100182E00E9426048091A40385FF9F
:1023B00008C08091100180628093100180E20E9429
:1023C00026046C2FC6010E94030CFF2031F080917F
:1023D0006E0485FF02C086FF33C080917104909126
:1023E00072040E94410980919703909198039C0187
:1023F0003056211540E2340720F0305E211530417F
:1024000008F499270E94630C0E946F1115C0CE0139
:102410009056811520E2920720F0905E8115904140
:10242000B8F4CE0199270E94630C80919703909194
:102430009803C817D90741F31093960300939503A7
:10244000DF91CF911F910F91FF90DF90CF90089572
:10245000CE01E9CFCF93DF93EC01EA85FB8530977E
:1024600019F06C857D8509959B8190958091A803D5
:1024700089238093A8038C810E9426040E94480B24
:1024800086E0FE0111928A95E9F7DF91CF910895D8
:10249000CF93DF93EC018D8181FD15C082608D8328
:1024A0008091A8039B81892B8093A8038C810E9433
:1024B00020040E94480BE885F9856C857D8530975E
:1024C00011F0CE01099510922203109221038D8103
:1024D00080FD03C0CE010E942A12DF91CF910895A2
:1024E0001F93CF93DF93182FA0911703B091180378
:1024F000109709F44AC010921A031092190310920F
:102500001503109214031696CD91DC911797CE0106
:102510009A9581159F4108F4D07ED1E0C11101C088
:10252000D0E01996ED91FC911A97309731F01B96F7
:102530006D917C9180E00995D823DD2339F08CEFF3
:102540008C0F813A30F58C2F0E9413041123A9F0CF
:10255000E0911703F0911803808584FD0EC08091EF
:102560001603882351F0808191819C01215031090B
:10257000203B3D4510F40E94AB070E94480B10928F
:1025800018031092170310921603DF91CF911F9139
:1025900008950E94480B8C2F0E94180CD7CFAEE1F3
:1025A000B0E0E5EDF2E10C945F30A0909002B090C5
:1025B000910281E090E0909391028093900200E07C
:1025C00010E0C80166E470E00E943B306C01F12C21
:1025D0001BC021E030E0023011051CF4F40125910C
:1025E00034914E2D6F2D802F0E94D00922E0820E53
:1025F000911CE3943EE0E312ECCF8EE0C80ED11CB8
:10260000F394A5E0FA1649F0C601880F991F9C01C2
:102610002A5C3D4F4901E12CDCCF0F5F1F4F043096
:10262000110579F60E94FC0D1A8219821C821B8208
:102630001E821D8218861F8288EC90E09A87898707
:102640000BE712E04AE050E0B801CE0101960E948B
:10265000F830065F1F4F0B3C32E0130799F7FE017D
:102660003B968AE0DF011D928A95E9F77F014AE0F7
:1026700050E0B801C7010E94F830065F1F4F0B31D0
:10268000B3E01B07A1F7FE01759689E0DF011D92FB
:102690008A95E9F78FEF9FEF9A8F898F87E08E8F6A
:1026A0007F014AE050E0B801C7010E94F830065FA0
:1026B0001F4F0B36B3E01B07A1F7B0929102A09217
:1026C00090026E96ECE00C947B3080E00E94B209A0
:1026D00060E086E290E00E94D4300E94CF120E9417
:1026E000FD0981E00E94B209089568EE7EEF80E066
:1026F00090E00E94F23060E082E090E00E94D430EE
:1027000060E083E090E00E94D4301092A60360E085
:1027100084E090E00E94D43064E082E290E00E9485
:10272000D43060E085E090E00E94D43060E086E044
:1027300090E00E94D4306FEF87E090E00E94D430A8
:1027400040E050E0BA0188E090E00E94E63060E0AE
:102750008DE090E00E94D43040E050E0BA0188E182
:1027600090E00E94E63060E087E190E00E94D43083
:1027700040E050E0BA018CE190E00E94E63060E079
:1027800070E080E290E00E94F23040E050E0BA0158
:1027900088E190E00E94E63080E00E94B2090E9449
:1027A000651340E050E0BA018FE090E00E94E6300F
:1027B00040E050E0BA0183E190E00E94E6300895E5
:1027C000AAE0B0E0E6EEF3E10C946330EFEFF1E065
:1027D00080E5DF011D928A95E9F7EBE1F4E088E3FB
:1027E000DF011D928A95E9F78FEFC82E81E0D82E80
:1027F0007F010BEC12E0F701D182C0824AE050E089
:10280000B801CE0101960E94B63088E0FE013196F3
:10281000D60101900D928A95E1F789859A85D701B5
:1028200013969C938E931297BAE0CB0ED11CE7E0DF
:10283000EE0EF11C065F1F4F0B31F3E01F07D9F6B8
:102840002A96E8E00C947F30AAE0B0E0EAE2F4E1F6
:102850000C945F3007E811E085E7C82E81E0D82EA0
:102860009BE1E92E93E0F92E27E0922E34E7A32E88
:1028700031E0B32E88248394D6010D931D936D010E
:102880004AE050E0B701CE0101960E94B630F8014F
:102890003896DF01892D1D928A95E9F789819A8101
:1028A000D80111969C938E938F8112968C931297D8
:1028B0008D8113968C931397888514968C93149717
:1028C000898515968C9315978B819C8117969C937F
:1028D0008E9316978A8587FD04C01E96BC92AE9291
:1028E0001D9780FF02C0F801808681FF07C0D801D4
:1028F00018969C911897926018969C9382FF04C03A
:10290000F80190859460908783FF07C0D8011896DE
:102910009C911897986018969C9384FF04C0F801C6
:1029200090859061908785FF07C0D80118968C919B
:102930001897806218968C93015F1F4FBAE0EB0ED8
:10294000F11CEBE6EE16E3E0FE0609F095CF2A96C1
:10295000ECE00C947B30362F272F883088F490E001
:102960006AE070E00E943B30BC0165587D4F4AE050
:1029700050E0832F922F0E94B63080E090E00895BF
:102980008FEF9FEF0895AAE0B0E0E9ECF4E10C943A
:1029900069309C0197558F3F910509F070F4BE0195
:1029A0006F5F7F4F822F0E94AB14892B31F4898592
:1029B0009A852A96E2E00C94853080916B04909180
:1029C0006C04F7CFA0E0B0E0E8EEF4E10C946430E2
:1029D000D62E172FC42FD22F8823A9F04093A103FE
:1029E0000E9453079093400180933F01C77081E09C
:1029F00001C0880FCA95EAF70E949F0BCDB7DEB7DA
:102A0000E7E00C9480308091A103481337C0809197
:102A10003F01909140010E94F9077C018D2D912F7B
:102A20000E94C314E816F90648F5CD130CC0802F98
:102A30000E94790CD77081E001C0880FDA95EAF71F
:102A40000E94B00BDBCFC77011E0812F01C0880F4F
:102A5000CA95EAF70E94B00B80E28D0F883050F4DF
:102A60008D2F877001C0110F8A95EAF7812F0E9480
:102A70009F0BDDCF802F0E94790CC0CFC77081E003
:102A800001C0880FCA95EAF7DBCFA5E0B0E0EBE420
:102A9000F5E10C9459307C01DC019C9111968C91EC
:102AA000119713962D913C91232B09F420C1892372
:102AB0008F3F09F41CC161E0C7010E94F90A8C0133
:102AC000F7018281882311F40C94B71F80912103B0
:102AD000909122030097F9F008171907E1F0992760
:102AE0006EE070E00E943B309C01FC01E65DFC4F13
:102AF000808184608083C9018B5D9C4FDC010D93D4
:102B00001C930E9448121092A803F7018281882327
:102B100011F40C94B71FC80182519F45409720F1D2
:102B20000031FFE51F0709F4CCC082E001312FE539
:102B3000120709F4C7C00F35FDE51F0709F44DC2A0
:102B400000362DE5120751F050900F010E354DE57E
:102B5000140709F05AC2552009F43FC210920F0120
:102B600080E00E947012B2C08FEF93E00E94C630E6
:102B70008111ACC05EEED52ED00E0BE613E0D11065
:102B80003CC08091120190911301A0911401B09169
:102B9000150189839A83AB83BC8368015FEFC51AF3
:102BA000D50AC8010E94C63089831A82882309F495
:102BB0008DC0813009F07FC0580182E0A80EB11CA1
:102BC000C6010E94C630C82E8A83882309F47EC0BD
:102BD000C5010E94C630D82E8FEF8C0D8330D8F4FB
:102BE000DB82DD2021F0CE0101960E949D0C580170
:102BF00093E0A90EB11C8501D0CF011544E0140764
:102C000009F464C0C8010E94C6300F5F1F4F8111D4
:102C1000F4CFDA94B4CF8BEF8C0D833040F55801AC
:102C2000A3E0AA0EB11CDB82DD2029F3C5010E94BE
:102C3000C6308C83882381F08B819C818130BFEFEB
:102C40009B0710F0982F8827E6E0CE1651F0F7E0AA
:102C5000CF1651F00E941726580124E0A20EB11C95
:102C6000CACF0E94D025F8CF0E94F425F5CF44E0CA
:102C7000C412C1CF580154E0A50EB11CC80103967F
:102C80000E94C630DD2011F1882301F18150990B9B
:102C90006FEF70E00E943B30AD2DA150BB0B8A0F4F
:102CA0009B1F019708F4A7CFEFE9FFE03197F1F7F9
:102CB00000C00000F6CFCE0101960E949D0C560187
:102CC0009ACF81E00E94F8100E9463118091A903BD
:102CD0008770882361F0D70112968C91882339F090
:102CE0008091780482FF03C082E00E942C11259617
:102CF000E2E10C94753081E00E941C11E5CF0115D2
:102D000027E5120708F46DC1011548E5140708F01E
:102D100037C1680157E5D51A6AE073E08C2D0E942F
:102D2000AB14892B19F5C6016EE070E00E943B30B0
:102D3000FC01EB5DFC4F82818130D9F480910A0364
:102D400090910B03892B91F080910C0390910D03CE
:102D5000892B61F080910E0390910F032091100355
:102D600030911103822B932B892B59F0F70152805C
:102D70001CC08230D9F780910E0390910F03892BEC
:102D8000A9F3C6016EE070E00E943B309C01FC019B
:102D9000E65DFC4F80818E7F8083C9018B5D9C4FF7
:102DA0000E944812D70112965C9080910F018823EF
:102DB00009F434C1480150EE851A91084090A503EA
:102DC0008091A403482A8091A303482A88E08816AA
:102DD000910408F0CDC198012770332781E090E07D
:102DE00001C0880F2A95EAF7552009F4BEC1482A88
:102DF000D7018D919C910E94BA0321E030E0190126
:102E000002C0220C331C8A95E2F760901703709081
:102E100018031D82BD81EB2FF0E0EE0FFF1FEB5872
:102E2000FE4FC080D180C114D10409F4F7C1411014
:102E300004C0F60182818111BFC1D60113968C9125
:102E4000139790E082219321892B09F4B5C118963C
:102E50008C91982F97709111A1C1B8E08B169104B5
:102E600008F0AEC15110A2C1F601A080B1800A15D0
:102E70001B0509F4A1C1C614D70409F49DC1D601EC
:102E80001D96ED91FC91309721F08081882309F403
:102E900093C1642DC6010E942507882309F48CC1C3
:102EA0000A151B0511F4511005C0A114B10409F055
:102EB0008FC1512C80E00E947012D0921803C092F2
:102EC000170381E080931603F60185818093150333
:102ED00051100DC0AB2859F0808191819C01245084
:102EE0003109213A310508F07BC10E941304F60133
:102EF000A680B780C5019A9581159F4110F420EEF8
:102F0000B22277247394C5010197803B9D4508F058
:102F1000712CD6011996ED91FC911A97309731F0EA
:102F20001B966D917C9181E00995782281E058266D
:102F3000772009F470C1F601868197810E942F03E2
:102F400080931403C501F8E08F16910408F04BC17B
:102F50000E94AB070E94480B552009F44DC1809197
:102F60006E0480FD46C0F7018281033FFCE51F0728
:102F700009F049C306E221EE40EE63EF7CE507C3AA
:102F800080910F01882309F4D6C180911F0390918D
:102F900020030817190781F41092200310921F03D1
:102FA00010921B0310921C0310921D0310921E031B
:102FB00010921A0310921903E0911703F09118036D
:102FC000309729F1808191810817190701F5109236
:102FD000160380E00E9470121AC081E080930F01F6
:102FE00075CE80910F018111BEC080916E0480FF6B
:102FF0006CC10E9453076C01F70182818111A6C147
:10300000013E110509F04EC15FC05110D3CEC80179
:1030100097558F3F910511F008F08DC15801BB24E1
:10302000C5016EE070E00E943B30FC01AC014B5DDD
:103030005C4F6A01D70112968C91E65DFC4F90813E
:1030400080FB90F99083882309F412C10E945307F2
:103050009093240380932303F60182818F5F828300
:103060008091A8039091A403892B83838091A3036B
:1030700084830680F781E02D309731F0D6011C96CD
:103080006D917C91C6010995C5016EE070E00E94CA
:103090003B30FC01EB5DFC4F858181FDE6C0902F4C
:1030A000812F909321038093220380916E0480FFEF
:1030B0009BC30E9453076C01F7018281811146C1B5
:1030C000013E110509F023C2809110018F7E80938B
:1030D0001001F70186819781009709F48AC40E9444
:1030E0007C048C01F701C280D580D2942FE0D222DB
:1030F0008091A90387708823C1F0AC2CCC20B1F05B
:10310000812F807F803421F080E2800F883068F04A
:103110008091780482FF09C082E00E942C11809186
:10312000A9038770AA24A3948111A12C812F8295D1
:103130008F70883009F4B3C508F072C4823008F487
:1031400082C4825F8F70823008F4B7C4C8010E94C5
:103150006303882309F424C5CC2009F405C7DD20C6
:1031600009F4FDC41DC5512C25CE8095482240CEC2
:10317000552009F40ACF1093200300931F030E94E7
:103180008E0760931B0370931C0380931D03909321
:103190001E0310921A03109219032ACEE8E08E162D
:1031A000910488F4552031F081FF06C0D601AD901E
:1031B000BC9061CE82FD58CE9D819F5F9D832ACEBB
:1031C0005110F4CFF9CF5520B9F380FFF5CFEECFF2
:1031D00080911F03909120038A159B0569F769CEA2
:1031E0000E94180C84CE0497813A910540F48A2DF0
:1031F0000E94FA0351100BCF0E94480B67CD0E942A
:10320000480B8FE39CE90197F1F700C000008A2D7D
:103210000E94C20BEFCF0E94480BECCF61147104E7
:1032200009F4F5CEA8E08A16910450F4642DC30188
:103230000E942507811178C081E00E9470128FCE14
:10324000D3018D919C9111970817190741F45520CE
:1032500009F4BDCE18968C9185FDD9CEBACE5520F5
:1032600009F4D5CEF3018085F7CF90E080E019CF47
:10327000C5016EE070E00E943B30FC01EB5DFC4F4D
:10328000858181FF17C0C6010E942A1280916E04B9
:1032900080FF80C20E9453076C01D70112968C9167
:1032A000811154C0053E110509F031C18091100112
:1032B0008F7D0DCF80916E0480FF96C20E945307D0
:1032C0006C01D70112968C91F9CED70112968C9190
:1032D000043F2CE5120708F496C1053FACE51A0738
:1032E00009F448C2063FBCE51B0709F449C2043F84
:1032F000ECE51E0709F438C2D70112968C91882399
:1033000009F4E7CE1092A1030136FDE51F0709F08D
:1033100049C20E940D0A90937804809584FB8095A1
:1033200084F98093770481C280916E0480FD61CE20
:10333000F7018281CDCF80916E0480FD5ACEF701D6
:103340008281033FFCE51F0719F614CE809110011E
:1033500082FF06C040E0B60180E090E00E948E113E
:103360000B31FCE51F0709F10C312CE5120709F4BC
:1033700061C00A314CE5140709F085C09091100135
:10338000892F8E7F90FF8160809310010E946F11C2
:103390008091100180FFFAC1D70112968C918111A2
:1033A000DEC1033FBCE51B07E3CD809110018160C6
:1033B00080931001D70112968C91882321F01092EE
:1033C000980310929703D70112968C918111109255
:1033D000A103F7019281911197CF0631ECE51E0709
:1033E00009F077CE8091A40330916D0430FF04C0C2
:1033F000282F24742111C9C2282F2A7A31FF04C032
:10340000482F4171411120E0432F487032FFBFC265
:10341000382F3878332309F4BAC24111CAC2911146
:10342000C1C28091A203882309F4C5C285E30E942A
:103430001304E2CE809110018E7F809310010E94D0
:103440006F118091100180FDA7CFF7018281882341
:1034500009F43FCE1092A103C8018A5F9C450997E9
:1034600008F08DC20E940D0A90937804809377042F
:10347000F801EB5FFC45E830F10508F0FAC1E45EC5
:10348000FE4C0C944C30F701828198013056211586
:10349000F0E23F0728F1305E2115304108F050C0BE
:1034A0001092980310929703882309F412CE109279
:1034B000A10381E00A35BDE51B0709F48FC20115A0
:1034C0001C4509F006CE0E94490D2FEF44E35CE055
:1034D000215040405040E1F700C000000E944F09D9
:1034E0001092980310929703882309F4F2CD10925A
:1034F000A1030B358DE5180709F479C208F071C2F4
:103500000E3DACE51A07A9F60E9475136EC2C801FC
:103510009056811550E2950720F0905E81159041FC
:1035200078F48091100182FF4ECF8091700481FD6C
:1035300006CF40E0B60180E090E00E948E11FFCE01
:10354000F70182819091100190FFF9CE08321105A8
:1035500008F50E31110508F04BC0980124503109CF
:103560002A313105E8F1882399F1109298031092DD
:103570009703093D5CE5150729F1073D9CE519070F
:1035800009F021CF06E221EE41EE67ED7CE50E94D5
:10359000E2149CCB09331105E8F40D321105F0F566
:1035A0000B321105D9F1882399F0109298031092EB
:1035B0009703083D4CE5140759F1093D5CE51507F3
:1035C00009F001CF08E221E045EE69ED7CE5DFCFAF
:1035D00080E0EFCF0436110509F1811126C0AFCE8E
:1035E00090916E0494FF26C0882309F472CDBDCF5C
:1035F00090916E0493FF1EC0882309F46ACD109247
:10360000980310929703083D4CE5140709F0B1CFD9
:1036100007E225EE45EE68ED7CE5B9CF90916E04AA
:1036200092FF08C0882309F4CECE1092980310921E
:10363000970385CE882309F48CC08091A3039091D1
:10364000A403892B8D7F8823C9F0109298031092D0
:10365000970380916E0481FD11C060E0C8010E9453
:10366000C30660E0C8010E94030C8091A3038D7F14
:103670000E947A0782E00E942C1128CB88E0F70193
:10368000A9E9B3E001900D928A95E1F710929B03AE
:1036900010929D0310929C03809197039091980340
:1036A00008171907C9F520916E0425FF35C0309120
:1036B000100131FF02C026FF2FC0209195033091E9
:1036C00096035601A21AB30A0E94C314A816B9069B
:1036D00018F58091A40381FF08C0809110018061DA
:1036E0008093100182E00E9426048091A40385FF4C
:1036F00008C08091100180628093100180E20E94D6
:1037000026046091100166956170809197039091F5
:1037100098030E94030CDACA8091A303B090A4031B
:10372000B82AB1FABB24B0F88D7F0E947A071093B3
:10373000980300939703D0929603C0929503BB0C15
:103740006894B2F890911001997FB92AB092100153
:1037500091CF40E0B601C8010E948E11B7CA109205
:10376000980310929703B4CD07E225EE44EE64EF80
:103770007CE50DCF06E221EE42EE65EF7CE507CF5A
:1037800007E225EE46EE66EF7CE501CFD701129603
:103790008C915DCED70112968C91882309F499CC37
:1037A0001092A10302362DE5120708F506314CE50B
:1037B000140708F051CE02305CE5150708F479CE05
:1037C0000E940D0A9093780480937704F801E350E7
:1037D000FC45809177048160E331F10508F0A1CDCB
:1037E000EC5DFE4C0C944C30F7018281D6CF053A4B
:1037F0008DE5180719F1C8018D5A9D45039708F00A
:1038000078CE0E940D0A90937804809377040D3A45
:103810009DE51907E1F00E3AADE51A0709F44FC02E
:103820000F3ABDE51B0709F4A3C08091770490917E
:1038300078040E94A4090E94490D48CA0E940D0AFA
:1038400090937804809580FB809580F96ACD809173
:103850007804886080937804E8CF80917704826050
:1038600060CD8091770484605CCD8091770488601E
:1038700058CD809178048160EDCF8091780482608A
:10388000E9CF8091770480614CCD8091770480628C
:1038900048CD80917704806444CD0E94490D809189
:1038A000770480683ECD809177048C603ACD80911A
:1038B00078048360CFCF809177048E7F32CD809162
:1038C0007804877FC7CF809177048D7F2ACD809140
:1038D00077048B7F26CD80917704877F22CD8091DE
:1038E00078048E7FB7CF809178048D7FB3CF80919D
:1038F00077048F7E16CD809177048F7D12CD8091D5
:1039000077048F7B0ECD0E94490D809177048F77CD
:1039100008CD80917704837F04CD809178048C7FDB
:1039200099CF8091770482FB992790F921E0922723
:1039300090FB82F990FB83F9F4CC80917804982F66
:10394000909591708E7F892B90FB81F983CF0E9497
:10395000490D90917704892F97FB87F98058E1CC26
:1039600061E08EE090E00E94D4305FCF60E0F9CF5C
:1039700090917804892F877F93FF88606BCF063101
:10398000FCE51F07D1F491E02DCD20E037CD442395
:1039900019F08272811143CD992309F442CD85E358
:1039A000211102C090E089E29093A2030E94FA03E1
:1039B00023CC20E0EECF89E23ACD0B352DE512077E
:1039C000B1F008F49DCD0C351D4509F082CB8091F6
:1039D000780482FB882780F991E089270E944E11A4
:1039E00078CB073A1D4509F074CB0E94570D80E053
:1039F000F5CF8281C080D180882369F0C6010E9402
:103A0000870A182F682FC6010E948003B601812FF4
:103A10000E946A0A64CBC6010E94BA03182FF6CF2F
:103A2000893009F4ADC18A5F8F70823008F08ECB87
:103A3000BC2C023F09F0B7C1812F8F71C110B0C1FA
:103A40000E94F8105AC1F12FFF70BF2E103118F0EC
:103A5000B29490EFB922CC20B9F0BB2059F080E2AB
:103A6000800F883010F0011109C08B2D0E942004B6
:103A70000E94480B802F0E94C20B68CB8091A80344
:103A80008B298093A803F4CF802F0E94180CBB20B1
:103A900009F45CCB80E2800F883010F0011104C083
:103AA0008B2D0E94260406C0B0948091A8038B2120
:103AB0008093A8030E94480B49CB212F2F70B22E70
:103AC000812F807F803219F0B29480EFB8220023DA
:103AD00001F1013009F4B1C0CC2009F4C9C0DD20E6
:103AE00009F4C1C040E0D70112966C9112978D91F4
:103AF0009C910E94DB0A8091700481FDB0C0F701A7
:103B0000858180FFACC08F7085838B2D0E949F0BB9
:103B100047C08091780482FD12C0CC2049F0BB20C0
:103B200029F08B2D0E9420040E94480B80E0A3CF37
:103B300080E00E94180CBB2009F408CBB1CFCC2048
:103B400009F44AC0D11024C08091A3038B290E949C
:103B50009F0B80E0912F0E946303882309F1AA2024
:103B600009F4FCC18091A90380FDF8C1F70112821C
:103B70008595859585950E94F810C7010E94451589
:103B80008091A9038595859585950E941C11E6C1B4
:103B900041E0D4120AC08091A3038B290E947A07C6
:103BA00010927A0410927904DACF80916F048230F7
:103BB00078F0D8120DC00E942E049091A5038B2D91
:103BC000892B89138093A5038B2D0E949F0BE8CF2F
:103BD0008091A3038B29F9CFD1100DC00E942E0430
:103BE0008B2D0E94B00B80E0912F0E9463038823ED
:103BF000B9F2BA2C63C180916F0451E0D51215C09F
:103C0000823070F28091A4038B21882349F20E94B4
:103C10002E049091A5038B2D809589238913809381
:103C2000A5038B2D0E94B00BBBCF823018F08D15F1
:103C300009F4B6CF0E942E04F4CF80917504CC20F5
:103C400039F08D1508F4ACCF8B2D0E949F0B7ECAE6
:103C5000D81608F07BCA8B2D0E94B00B77CA802F34
:103C60000E94C20B9DCF8B2D0E949F0B802F72CF85
:103C7000DD2081F08091730490917404093321F068
:103C800080917104909172040E944109802F0E94DA
:103C9000180C86CF8B2D0E94B00B802FA5CF812FC3
:103CA0008370811135C0C11028C0402F42954695C0
:103CB0004770440F440F802F8F70042E01C0880F6F
:103CC0000A94EAF7202F2071222339F02FE030E008
:103CD00001C0220F4A95EAF72095312F3695369587
:103CE0003370323081F0333061F04091A6033130CF
:103CF00039F0822B84230E94EA100E94460726CACC
:103D0000842B822BF8CF822B9091A6038927F3CFA7
:103D1000CC2059F110FFF1CF402F429546954770C6
:103D2000440F440F802F8F70042E01C0880F0A9417
:103D3000EAF7202F2071222339F02FE030E001C074
:103D4000220F4A95EAF72095312F36953695337034
:103D5000323089F0333069F04091A703313041F0BF
:103D6000822B84230E94F110C8CF823030F2D4CF4E
:103D7000842B822BF7CF822B9091A7038927F2CF38
:103D8000F12FFF70BF2ECC2039F08F2F0E94F8103A
:103D9000802F0E949F0BB1CF802F0E94B00B8B2DE4
:103DA0000E941C11AACF033F70F4003FB9F0013FFD
:103DB000C9F1CC2009F4BDC0DD2009F4B7C0802FC3
:103DC0000E94C20B9ACF033FE9F0043F39F1C110C2
:103DD000F3CFD110B7C0812F8F71E2CF80917504DE
:103DE000CC2061F0D81608F088CF212F2F7181E008
:103DF00090E001C0880F2A95EAF7BECF8D1508F430
:103E00007CCFF3CF80E0CC2009F4ACCF81E0912FC0
:103E10009F7101C0880F9A95EAF7A4CF809178042A
:103E200082FD06C0812F8F71CC2009F4B9CF08CE56
:103E300080916F04823008F461C0CC2041F19091F0
:103E4000A90397709430B9F41092A9031092AB03B0
:103E50001092AA03812F8F710E941C110E944607A5
:103E600084EF912F0E946303811176C010927A042F
:103E70001092790473C0D81688F7012F0F71802F24
:103E80000E94F81063E0802F0E940411E7CFD8163B
:103E900088F11092A9031092AB031092AA0364E078
:103EA000812F8F710E9404110E94460784EF912F89
:103EB0000E9463038823D1F2D110D8CF40E0D7010C
:103EC00012966C9112978D919C910E94DB0A8091C1
:103ED000700483FF09C08091790490917A0402975D
:103EE00019F4802F0E94790C10927A0410927904B0
:103EF000AB2C35CE81E00E942C11D6CFCC2059F0CE
:103F0000212F2F71B22E822F0E94F81063E08B2D8B
:103F10000E940411F2CE81E00E942C1141E04D1567
:103F200008F0EBCE82E00E942C11E7CE812F8F713A
:103F300087CDDD2009F44FCF8091730490917404F4
:103F4000093321F080917104909172040E9441091B
:103F5000802F0E94180CD1CED11088CF60E0C7010D
:103F60000E94F90A0C947716D1101ACE42CE003175
:103F7000FFE51F0711F40C947B1601312FE51207A2
:103F800011F00C947F1682E00C947C16EF92FF9255
:103F90000F931F93CF93DF938091E602803130F42B
:103FA0008091E302C091A002811107C0CDB7DEB7B6
:103FB000E6E00C9481302196C77080919F028C17A7
:103FC000A9F32091E1023091E2028091E402909104
:103FD000E502D0E0009779F3432F42234F3F59F396
:103FE0008E0143E0000F111F4A95E1F7F801EF55EC
:103FF000FD4F41813413DFCF30813213DCCF22817A
:104000002111D9CFE380F480E81AF90A60E081EE4B
:1040100092E00E94F90A0E94C314E816F90658F6C5
:104020008091E6028F7080618093E602F801EA5584
:10403000FD4F80818F708061808381EE92E00E94CD
:1040400045150E94F003B2CFADE0B0E0EAE2F0E245
:104050000C945E308C0185E0F801DE011996019028
:104060000D928A95E1F7D801BC901196AC9011970A
:1040700012967C9012971396CD90DC9060E081EEC2
:1040800092E00E94F90A9091E1028091E20220916F
:10409000E4023091E5022115310509F49AC1892322
:1040A0008F3F09F496C1E090E3024601821A930A19
:1040B00060E081EE92E0EE2009F438C10E94F90A36
:1040C0000E94C314F090E6028816990608F0FCC01E
:1040D0008091E1029091E2022091E4023091E502A8
:1040E000BFE0BF1508F498C0F72C232B39F1282F17
:1040F00029232F3F19F1F801218129131FC0908135
:1041000098131CC02091E7023091E80286819781C4
:104110002817390799F471101FC08091E6028F703B
:1041200080618093E60281EE92E00E9445158091C5
:10413000E602D80115968C93F12C69C0C114D10404
:1041400059F19B2D9A219F3F39F12091A002409176
:104150009F02822F7720D9F08091E60281608093C0
:10416000E602EACF30E0F90153E0EE0FFF1F5A9567
:10417000E1F7EF55FD4F51815A1106C05081B5123C
:1041800003C0528151112DC12F5F3F4F277024135F
:10419000E9CF9F3FC1F4D0CF772071F2DDCF90E01F
:1041A000FC0123E0EE0FFF1F2A95E1F7EF55FD4FCD
:1041B0002181A21206C02081B21203C022812111E6
:1041C000BBCF019687708413EACF89859A850E94B8
:1041D000B20A292F22952F70903248F49F709923AC
:1041E00011F08823A1F0805E883088F004C0225F3F
:1041F0002F70223028F0C8010E944515FE2C07C000
:104200009F70992381F3F8019581903160F78F2D8C
:104210002D96EDE00C947A30232B41F1282F2923A1
:104220002F3F21F1D80111962C91119729131EC00F
:104230009C9198131BC02091E7023091E8021696DA
:104240008D919C9117972817390781F471100EC032
:104250001596FC92C8010E94451588E0F801A1EE70
:10426000B2E001900D928A95E1F72BC0C8010E943F
:10427000C10A882309F4A5C0772009F4A2C080915F
:10428000E6028032A0F08091E1029091E2029A83EE
:1042900089831B82DD82CC82FE828091E70290912D
:1042A000E80298878F83CE0101960E94451588E029
:1042B000F801A1EEB2E001900D928A95E1F70E941B
:1042C000C61FFF24F394A3CFBFE0BF1508F08DC035
:1042D0008091E1029091E2022091E4023091E502A6
:1042E000232B21F2282F29232F3F09F4BFCFF801D8
:1042F00021812913BBCF90819813B8CF2091E70279
:104300003091E802868197812817390709F0AECFEE
:104310007110ACCFF582C8010E944515E1EEF2E0C4
:1043200088E0DF011D928A95E9F7CBCF0E94F90A58
:104330000E94C3148816990608F047C0772009F434
:1043400040C08091E1029091E2022091E40230911C
:10435000E502232B61F1282F29232F3F41F1F8019A
:104360002181291324C09081981321C02091E70254
:104370003091E8028681978128173907C1F480912E
:10438000700482FD6ACF8091E60280FD66CF8031A5
:1043900008F463CF8583982F907F903F09F45ACF1C
:1043A000982F907F905F8F70892B858353CFC801A2
:1043B0000E94C10A81117BCF8091E60281608093C7
:1043C000E602C8010E9445157CCFE1EEF2E088E0EC
:1043D00013C07720B1F3C8010E94C10A882389F372
:1043E00066CF2091700420FFD4CE81EE92E00E942F
:1043F000451588E0E1EEF2E0DF011D928A95E9F7CC
:104400009BCEA0E1B0E0E7E0F2E20C9469302987AE
:104410003A874B875C876D877E878F87988BCE0125
:1044200009960E942420811131C088E0FE0139964E
:10443000DE01119601900D928A95E1F789859A85A2
:10444000A0919F022091A0024C855D85452BF1F043
:1044500089238F3FD9F0B0E0CD010196877099276D
:1044600030E082179307E1F033E0AA0FBB1F3A95C3
:10447000E1F7AF55BD4F98E0FE01319601900D92E6
:104480009A95E1F780939F020E94F0038091A00229
:1044900090919F02891312C06096E2E00C948530DF
:1044A0000E94490D10929F021092A00288E0E1EE56
:1044B000F2E0DF011D928A95E9F7E8CF90E023E072
:1044C000880F991F2A95E1F78F559D4F0E94242050
:1044D000882311F38091A00290E0019687709927BC
:1044E0008093A002D3CF1F93CF93DF9380911804C2
:1044F000C0915301811142C0DF91CF911F91089566
:1045000011E01C0F10935301D0E0CE016CE070E07D
:104510000E943B30FC01E854FC4F23813481CE01E2
:10452000232B59F12081318123232F3F31F1268123
:104530003781232B29F4208531852F3F3F4F89F484
:104540006CE070E00E943B30FC01E854FC4F20819D
:1045500031814281538164817581868197810E9476
:104560000122CE016CE070E00E943B30FC01E85477
:10457000FC4F148213821092A803C12F809118045B
:10458000C81708F4BDCF1092180410925301B4CF8D
:104590004F925F927F928F929F92AF92BF92CF92F3
:1045A000DF92EF92FF920F931F93CF93DF93C0910F
:1045B000B70301E010E09EEFA92E88248394809138
:1045C000B6038C1314C00E9473220E94E906DF9187
:1045D000CF911F910F91FF90EF90DF90CF90BF9000
:1045E000AF909F908F907F905F904F9008954C2E4A
:1045F000512CF201EE0FFF1FE455FC4F0190F081AA
:10460000E02DCF0167E070E00E943B30DC01A55E49
:10461000BB4F14968C91811169C090901804D8EB0F
:10462000ED2ED3E0FD2EA0E0B0E0B12CA91508F0EE
:104630005AC0E701CA84DB84CF0167E070E00E94C2
:104640003B30855E9B4FEC01688179812FEF3FEF16
:10465000712C872D90E0AC01440F551F460F571F5A
:10466000EA01488159814115510539F0C416D50632
:1046700009F0C90173949C01ECCF2F3F3207E9F197
:10468000A80102C0440F551F2A95E2F7B42AE80199
:1046900002C0CC0FDD1F7A94E2F7CE0101972B2DDB
:1046A00030E08217930731F5CD016CE070E00E9495
:1046B0003B30DC01A854BC4FCF0167E070E00E94A2
:1046C0003B30855E9B4FEC012A813B8117963C93E2
:1046D0002E931697AC921196AC9211971996FC9363
:1046E000EE9318978D82CF010E94FA06E20121967F
:1046F000C37065CFE7011C821B821196DCE0ED0ED2
:10470000F11C94CF10921A04109219041092110106
:104710008091B6038093B7030E94E9060E9473223A
:104720000895A9E1B0E0E7E9F3E20C945930142FC1
:10473000498B052F5A8B962F6B8B7C8B8D8BEC883E
:10474000FD88E114F10471F0842F85238F3F51F02F
:104750002091790430917A042F5F3F4F30937A048F
:104760002093790491111092A8031E861F86188A3F
:1047700085E0FE017196DE01199601900D928A95F1
:10478000E1F78091780482FF21C0809155049091D7
:104790005604892BD9F00E9453072091AA03309127
:1047A000AB03821B930B2091550430915604821762
:1047B000930738F08091A90382FD03C082E00E9434
:1047C0002C110E945F0781110E942E04E114F10454
:1047D00099F010231F3F81F061E0CE0109960E94FD
:1047E000F90A6C01BB84873F2CE5920781F4BB205A
:1047F00009F181E08093110129853A854B855C851B
:104800006D857E858F8598890E940122C2C0883F70
:104810003CE5930729F4BB2069F00E948223ECCF8A
:10482000893F9C4539F4BB2029F080911101811109
:10483000F4CFDFCF0BE114E0A12C812C912C442488
:104840004394512CF80180819181EE24EA94FF2455
:10485000FA9420E0622F70E0FB01EE0FFF1FE80FDB
:10486000F91F408151814115510539F0C416D50613
:1048700009F0B7012F5F7B01EDCF80E0FFEFEF166E
:10488000FF0609F448C0F8018481958146818111B1
:10489000FFC080911101882309F40BC1BB2009F4EA
:1048A00008C16090690470906A04911114C081E09D
:1048B00090E00E2C01C0880F0A94EAF7482B46833B
:1048C0008091B4039091B5038615970520F47092FA
:1048D000B5036092B403B20102C0660F771F2A9538
:1048E000E2F79B0121503109F801868190E02817F9
:1048F000390781F48091190490911A04009709F402
:104900004CC00E94F9076816790608F046C081E09D
:10491000F80184838B2DA82AFFEF8F1A9F0A095F65
:104920001F4F28E08216910409F08CCFBB2009F4B8
:1049300023C1AA2009F40EC10E94530790931A04C0
:104940008093190480911804883018F591E0980F2D
:104950009093180498E0FE013996DE0111960190BB
:104960000D929A95E1F790E06CE070E00E943B3088
:1049700088549C4F28E0FE013196DC0101900D9295
:104980002A95E1F72FEF3FEFFC0131872087D3868F
:10499000C2866996E2E10C9475304091B70320918C
:1049A000B603342FE0E0F0E07801421315C03093F5
:1049B000B703E017F10709F4ADCF30E0F901EE0FCE
:1049C000FF1FE455FC4F918280822F5F3F4F237081
:1049D00033272093B6039ECF642E712CF301EE0F84
:1049E000FF1FE455FC4F8081918167E070E00E94D9
:1049F0003B30DC01A55EBB4F6D917C911197798FA7
:104A0000688F50E080E090E0E92FF0E0EE0FFF1FAC
:104A1000688D798DE60FF71F2080318021143104D5
:104A2000E1F0F8010190F081E02DFF8BEE8B80E04A
:104A300005C02616370609F45B2D8F5FE82FF0E0DE
:104A4000EE0FFF1F6E897F89E60FF71F608171816E
:104A50006115710571F79F5FD7CF5523B1F0F7014D
:104A6000891708F0FD0161E06483E017F10709F49C
:104A70009ECF431305C0AE17BF0711F43F5F3370DD
:104A8000A3014F5F5F4F437090CFE0E0F0E0F8CFBD
:104A900050E091112BC0C20102C0880F991F2A95C6
:104AA000E2F701978417950799F4C4010E94FA066A
:104AB0000FC050E091111AC0F20102C0EE0FFF1FAB
:104AC0002A95E2F79F01215031092417350709F093
:104AD00080E0920102C0220F331FEA94E2F77901CD
:104AE000E094F80196819E21968315CFCA010E2C81
:104AF00002C0959587950A94E2F79A0121503109F1
:104B000024233523232B21F580FF22C0F801828145
:104B10009381892BC9F01B821C821D821E828EEF1D
:104B200089838A830E9453078160582F692F9D8350
:104B30008C83F801828193818F83988729813A81C0
:104B40004B817E810E940122F801158281E0C1CF54
:104B50008170BFCF9091B6038091B703981309C0BD
:104B60000E94732210921A04109219040E94E906FE
:104B700043CE0E94C82240CE9091B7038091B603E5
:104B8000981729F00E94C822A11003CF35CE0E94A9
:104B9000732210921A04109219040E94E906F4CFAD
:104BA000A5E0B0E0E6EDF5E20C9469309093580290
:104BB00080935702811520E2920730F40E94ED0B9A
:104BC0002596E2E00C94853080EF89838A8381E02A
:104BD0008B830E9453078160782F49815A816B81B2
:104BE000892F0E949123ECCFA5E0B0E0EAEFF5E237
:104BF0000C9469309093580280935702811520E2FB
:104C0000920730F40E94630C2596E2E00C94853004
:104C100080EF89838A831B820E9453078160782FEB
:104C200049815A816B81892F0E949123EDCFCF93C7
:104C3000DF93D82FC92F0E94D025809171049091C5
:104C400072040E9441098D2F9C2F0E94F425DF9150
:104C5000CF9108950F931F93CF93DF938C01862FED
:104C60006AE073E00E94AB14892BB1F4C0910A038F
:104C7000D0910B03209781F0F8018281833051F4A9
:104C8000CE010E941726CE010E941726CE010E9457
:104C9000172602C08430D0F7DF91CF911F910F917A
:104CA00008950F931F93CF93DF938C01EB016AE07C
:104CB00073E08C2F0E94AB14892B09F05AC0FE01BF
:104CC000FF27D80112968C911297E15BFD4F81303E
:104CD000A9F415968C9182FD51C080FF4FC082E0EF
:104CE000808380910C0390910D030097B9F480911B
:104CF0000A0390910B030097E1F110C08230B9F5DF
:104D000015968C9182FD28C080FD0BC083E08083C6
:104D100080910E0390910F03009701F10E94D0251E
:104D200028C084E080838091100390911103009744
:104D3000A9F780910A0390910B03009711F10E944B
:104D4000172680910C0390910D03009739F78091FD
:104D50000A0390910B03E2CF85E0808380910A03E0
:104D600090910B03009729F00E941726F0CF86E060
:104D70008083DF91CF911F910F91089581E080830F
:104D8000B6CF80910C0390910D03B5CF0F931F9375
:104D9000CF93DF938C01EB016AE073E08C2F0E94CC
:104DA000AB14892BA1F480917104909172040E943C
:104DB0004109DD27C15BDD4F8881F801128218822D
:104DC0008330F1F048F4813059F0823081F0DF9186
:104DD000CF911F910F9108958430B9F08530B9F7C4
:104DE00080910A0390910B03009789F306C080918C
:104DF0000C0390910D03009799F30E94F425E7CFDF
:104E000080910E0390910F03F6CF80911003909143
:104E10001103009791F720910A0330910B038091C1
:104E20000C0390910D0321153105F1F2009729F73C
:104E3000C901E3CF9C01CB01BA01F901329645913A
:104E400054916417750748F0F9013496659174918F
:104E50000E94A63080E090E008958FEF9FEF0895C4
:104E60009C01DA010296FC0145915491FC01859167
:104E70009491A817B90758F0F90134968591949147
:104E80000E94A6300E94050B80E090E008958FEF0D
:104E90009FEF0895AAE0B0E0E0E5F7E20C945D3002
:104EA000FE0131968AE0DF011D928A95E9F79FE1C4
:104EB000A92E91E0B92E8F0124E2E22E21E0F22EFC
:104EC0003F01CC24C394D12CF50181915F018F3F28
:104ED00009F447C0F894E82FE295EF70F0E021A1C3
:104EE0008F70A60102C0440F551F8A95E2F7CA01D0
:104EF000922F982B91A392A18095892382A37894D5
:104F000000C0E4E2F1E021E030E0812C912C4191FD
:104F10004F3F09F464C0A42FA295AF70A05EB0E02B
:104F20008C9190E04F7002C0959587954A95E2F775
:104F30008170811154C0C901882A992A220F331F18
:104F400051E0E233F50719F7F501319780818F3F82
:104F500011F00E94030680EA8A95F1F7D8018D923C
:104F60009C920E5F1F4FEA14FB0409F0ADCF4AE09C
:104F700050E0B3018CE592E00E949930892B91F1C9
:104F80008AE0F301ACE5B2E001900D928A95E1F779
:104F900081E080933E010E94530790933D018093EE
:104FA0003C0180913C0190913D010E94F9070597D9
:104FB000E8F04AE050E06CE572E086E892E00E949A
:104FC0009930892B49F08AE0ECE5F2E0A6E8B2E0FE
:104FD00001900D928A95E1F710923E0107C080E0A2
:104FE00090E0AACF80913E018111DBCF2A96EEE0BE
:104FF0000C947930CDB7DEB7AE970FB6F894DEBF1C
:105000000FBECDBF84B7877F84BF0FB6F894A89535
:1050100080916000886180936000109260000FBEF4
:1050200080E890E00FB6F89480936100909361005F
:105030000FBE81E096E090933301809332010E948D
:1050400029060E94E0130E9424140E94220B109251
:10505000E2001092E1008091E00081608093E00026
:105060008091D8008F778093D80019BC809163001D
:1050700081608093630010925B02809163008E7F59
:105080008093630081E080935B021092E2001092B3
:10509000E1008091D8008F778093D8008091D8006C
:1050A00080688093D8008091D8008F7D8093D8004D
:1050B00084E089BD86E089BD09B400FEFDCF109271
:1050C000940210925A02109267021092590242E022
:1050D00060E080E00E940A098091E1008E7F809369
:1050E000E1008091E20081608093E2008091E20023
:1050F00088608093E2008091E0008E7F8093E000E2
:105100008091E20084608093E20078948091940220
:10511000882399F08091E9001091EC0017951127F0
:1051200017958F70182B1092E9008091E80083FD8D
:105130000E942D0E1F701093E90082E084BD93E061
:1051400095BD9AEF97BD80936E000E941B0A811156
:1051500002C00E9465130FE111E094E2E92E91E094
:10516000F92ED8018D918D018F3F11F00E94030619
:10517000E016F106B1F704E211E082E3E82E81E0E7
:10518000F82EF80181918F018F3F11F00E940306E4
:10519000E016F106B1F78AE0E6E8F2E0DF01282F39
:1051A0001D922A95E9F7ECE5F2E0DF011D928A9560
:1051B000E9F780E090E00E94CE30883E9E4F21F4D7
:1051C0000E941B0A811102C00E94751382E090E0C8
:1051D0000E94C63080936A020E940D0A9093780460
:1051E000809377040E944A27EFE3FCE93197F1F7B7
:1051F00000C000000E944A278091860280FF08C0FC
:105200006FEF7FEF80E090E00E94F2300E944F0944
:1052100083E090E00E94C6300E94EA1081E091E0B5
:105220009093070380930603B5E74B2EB2E05B2E05
:1052300080919402853049F480919402853009F47C
:105240005BC00E94490D0E9446070E944A27ABE6B8
:10525000AA2EA2E0BA2E06E812E0D801F5012191AB
:1052600031918D919D914E165F0609F497C02817D4
:105270003907A9F3F6E88F2EF2E09F2E312CD401E6
:10528000ED90FD904D01F501619071905F016E14FC
:105290007F0459F16E247F24212CCC24C394D12C7B
:1052A000C3018C219D21892BB1F029823A8221E012
:1052B000C7018C219D21892B09F420E02B830E94BA
:1052C00053078160782F9D838C8349815A816B813C
:1052D000892F0E9491232394CC0CDD1CFEE02F1219
:1052E000DFCFF5013297F182E082339425E032126C
:1052F000C6CF0E948E0774C080919402843021F141
:105300001092660228E130E040E40FB6F894A895C8
:10531000209360000FBE4093600083B7817F84605C
:1053200083BF83B7816083BF7894889583B78E7F6E
:1053300083BF0FB6F894A895809160008861809330
:105340006000109260000FBE80916702882309F40C
:1053500073CF0E944A27E6E8F2E081919191892B70
:1053600029F482E0E039F807C1F766CF84E089BD0F
:1053700086E089BD09B400FEFDCF8091D8008F7D05
:105380008093D8008091E00082608093E00080915B
:10539000E00081FDFCCF0E94490D4ECF2817390750
:1053A00009F068CF0E9453077C01809168029091B8
:1053B0006902E816F906A1F08FEF89838A831B82C0
:1053C0000E9453078160782F9D838C8349815A8185
:1053D0006B81892F0E949123F0926902E09268020A
:1053E0008091190390911A03892B09F43EC04091D2
:1053F0007D0250917E0260917F02709180022FB7F2
:10540000F8948091750290917602A0917702B09104
:1054100078022FBF841B950BA60BB70B4091790226
:1054200050917A0260917B0270917C0284179507FB
:10543000A607B707D0F08091190390911A030E9434
:10544000ED0B10921A031092190310927D02109224
:105450007E0210927F0210928002109279021092C6
:105460007A0210927B0210927C02C0902103D090AD
:105470002203C114D10431F18091230390912403BC
:105480000E94F9077C01C6010E94C3148E159F0576
:10549000C8F420912103309122033327C9016EE023
:1054A00070E00E943B30FC01E65DFC4F808182FD94
:1054B00009C0C9016EE070E00E943B308B5D9C4FDB
:1054C0000E94481280911101882301F180911904F2
:1054D00090911A040097D1F00E94F9072091B4032B
:1054E0003091B5032817390788F49091B70380915C
:1054F000B603981709F44AC00E94C8221092B50357
:105500001092B40310921A041092190480916E0440
:1055100080FF1CC08091100182FF18C00E945307B9
:10552000BC0180919503909196039B01281B390B38
:1055300080910D0190910E012817390738F041E054
:1055400080919703909198030E948E110E944607C4
:1055500090918102891721F0809381020E948E0729
:1055600080919402843009F063CE83E08093E90057
:105570008091E80082FF5CCE8091E80085FD0FC03D
:105580008091E8008B778093E80052CE0E947322CE
:1055900010921A04109219040E94E906B7CF0E94D3
:1055A0008608882301F18091E8008B778093E800DA
:1055B000E0909202F0909302E981E114F104A9F1E4
:1055C000EE3F09F055C08A81833020F0855083304A
:1055D00008F04EC0EA81EE3008F04AC0F0E0E95C25
:1055E000FE4C0C944C3060E2C62ED12CCE010196BC
:1055F0007C018091E80085FD0AC08091E8008B77EE
:105600008093E8000E948608882399F3CCCF80918C
:10561000F100D7018C93B1E0CB1AD108C114D104A9
:1056200011F2EFEFEE1AFE0AE4CFE43150F4EE236C
:1056300051F0E150E33138F4F0E0EB5BFE4C0C94B8
:105640004C30EE3F39F28FEFAFC21A8289E08B8384
:105650000FC08A81823089F08330C1F0813099F7A0
:105660000E948E070E9452306B837C838D839E83C1
:10567000CE0101960E94E508DBCD86E290E00E9413
:10568000C6301B821C821D828E83F2CF80919002D5
:1056900090919102892B61F3FE01319680E992E0AD
:1056A000D8012C9111963C910E5F1F4F32832383BA
:1056B000329680179107A1F7DBCF8A81823019F6E5
:1056C0008B819C81AD81BE818BA79CA7ADA7BEA716
:1056D000BC01CD010E94523086E290E00E94D4309D
:1056E000C7CF4C816B818A810E94340A9827892711
:1056F00098279E838D83BCCF2D813E81322723271F
:1057000032274C816B818A810E94D009B1CF0E94DF
:10571000CF12AECF80E18A83ABCF1A8285E997CFD3
:105720008C81082F10E08D3108F0A2CFCA80DB8079
:10573000DC24CD24DC240C0D1D1D7E0195E0E90E3A
:10574000F11C0C151D0509F493CF80E0A5E9CA16DC
:10575000D10428F4C60185599C4F0E94C630F70138
:1057600081937F01FFEFCF1ADF0AEBCF8091900288
:1057700090919102892B09F47BCF8C81E82EF12C3A
:105780008D3108F075CF0A811B8110270127102762
:105790009E012F5F3F4F6901E20EF31EEC14FD04E2
:1057A00009F466CF0539110540F4D60114966C91C1
:1057B000C80185599C4F0E94D4300F5F1F4FBFEF27
:1057C000CB1ADB0AEBCF0E94FD0952CF84E0A3CFB6
:1057D0008C81082F10E08D3108F04ACFCA80DB8021
:1057E000DC24CD24DC240C0D1D1D7E01E5E0EE0E35
:1057F000F11C0C151D0509F43BCF80E0F0E3CF163A
:10580000F2E0DF0620F4C60187960E94C630D70179
:105810008D937D01BFEFCB1ADB0AEBCF8C81E82E95
:10582000F12C8D3108F024CF0A811B81102701272C
:1058300010270033E2E01E0708F01ACF80E392E061
:10584000801B910B8E159F0508F412CF809190025A
:1058500090919102892B09F03FC04801F7E28F0E29
:10586000911C680121E0C222DD24C114D10469F039
:10587000C80186960E94C6309D818927982789276E
:1058800081159C4511F48FEF8D83C701800F911F07
:10589000570180FF17C041E0A41AB10855E0652EFA
:1058A000712C6C0E7D1E6A0C7B1CC4018E0D9F1D1D
:1058B0000E94C630D3019C9181159C4519F48FEF4D
:1058C000F3018083E1E0F0E0EC0FFD1FEC0DFD1D26
:1058D0002FEFCA14DB0430F0FE0131966F01EE0E9B
:1058E000FF1E1CC09481858181159C4511F4248381
:1058F000258342E0C40ED11C3296EBCF003382E008
:10590000180738F4D60114966C91C80187960E9446
:10591000D4300F5F1F4FBFEFCB1ADB0ACE14DF046A
:1059200069F7A6CE8091900290919102892B09F49B
:105930009FCECE0101960E94E508FFEF21EE34E0F4
:10594000F15020403040E1F700C000005FCC88E01B
:10595000E6E1F1E0DE01919601900D928A95E1F782
:10596000FE0132968FE1DF011D928A95E9F785E00D
:10597000898388E07F96DE01159601900D928A95C5
:10598000E1F776CE8CE0898382E08A831B821C82D9
:105990006FCE8B819C81092E000CAA0BBB0B45E0BE
:1059A000880F991FAA1FBB1F4A95D1F7AC01BD01F3
:1059B000405E5F4F6F4F7F4F803EEFEF9E07AE0719
:1059C000BE0708F055CE8C30F2E09F07A105B10567
:1059D00008F04ECE4D3022E052076105710520F0EF
:1059E0004CE052E060E070E0481B590BBC01625291
:1059F0007C4FCE0101960E9490303ACE4AE150E0B1
:105A00006FEF70E0CE0107960E94AF308091900258
:105A10008983EA821B821C8281E08D8382E034CEFE
:105A200081E090E0909393028093920282E390E071
:105A300090938502809384020E945307909383027F
:105A40008093820215CEEF2899F1F09086020091A2
:105A500088021091890280918202909183020E94B3
:105A6000F9078536910568F11695079516950795FE
:105A70000170002331F1F0FE24C00E94530790937F
:105A80008302809382028091840290918502019723
:105A90009093850280938402892B51F41092930293
:105AA0001092920281E090E0909391028093900294
:105AB000809190028983809192028A8380918402EE
:105AC000C6CD82E390E09093850280938402F0CF6C
:105AD0001092910210929002CBCD0B811C8140E27A
